:100C070020202057454C434F4D452020200043418D
:100C170052205350454544004F56455220535045A6
:100C27004544004E4F524D414C20535045454400DA
:100A4100C297120C887BFF7A0C7907120C637F0125
:0B0A5100120CAD7BFF7A0C791580724F
:100A5C00E4F508F509F50AF50B3093702094117F35
:100A6C00647E00120C3F0509E50970F0050880EC66
:100A7C00AC08AD097E007F141209DEAC06AD07E4AC
:100A8C0012090BE4FBFA791078421208001209449F
:100A9C008E0A8F0B2093FD2094FAAF0BAE0A120B2B
:100AAC005BD3E50B9448E50A940040097FC0120C17
:100ABC00ADD2978071C2977FC0120CAD7BFF7A0CC0
:100ACC00792A120C637FC0120CAD80843094812083
:100ADC0093117F647E00120C3F0509E50970F00547
:100AEC000880ECAC08AD097E007F141209DEAC0660
:100AFC00AD07E412090BE4FBFA79107842120800F6
:100B0C001209448E0A8F0B2093FD2094FAAF0BAE82
:100B1C000A120B5BD3E50B9448E50A94004019D2FA
:100B2C00977FC0120CAD7BFF7A0C791F120C637F80
:100B3C00C0120CADC297415CC2977FC0120CAD7B4A
:0D0B4C00FF7A0C792A120C637FC0120CADE9
:020B5900415CFD
:100C88007F38120CAD7F0E120CAD7F06120CAD7FB3
:090C980001120CAD7F80020CADCD
:0A0CAD008FA0C290120C37C29222F1
:0A0CB7008FA0D290120C37C29222D7
:100C63008B0C8A0D890EAB0CAA0DA90E1209C56057
:100C730013050EE50E7002050D14F91209C5FF12D6
:050C83000CB780E22225
:080C3700C291D2927F287E00D9
:100C3F00E4FDFCC3ED9FEC9E5019758901758CFC8A
:100C4F00758A66D28C308DFDC28DC28C0DBD0001B0
:030C5F000C80E026
:010C6200226F
:040B5B00AB07AA0634
:100B5F00E4F50FF510F511F512D3EB9400EA9400BC
:100B6F0040307C007D0AAF03AE021209DEE510258E
:100B7F00E02411F8A60408A6057C007D0AAF03AE99
:100B8F00021209DEAA06AB070510E51070CB050FA0
:100B9F0080C7E510450F6008E51015107002150F9E
:100BAF00850F0D85100EC3E50D64809480401BE505
:100BBF000E25E02411F808E62430F50CFF120CB7CF
:100BCF00E50E150E70E0150D80DCE4F50DF50EC386
:100BDF0074109510FFE4950FFEC3E50E9FEE648031
:100BEF00F8E50D648098500F7F20120CB7050EE5C5
:070BFF000E70DC050D80D82B
:010C060022CB
:10080000EC4D6011E8497017ED33EC3304600DE4F2
:10081000FCFFFEFD22E933E8330470F80209B01250
:10082000097B58046009E4CC248150062850090251
:1008300009BA2840030209B7C0E0EB4A7044B98006
:1008400006D0E0FB0209A6EF4E701CBD8008EBFF4E
:10085000EAFEE9FD80EBE98DF0A4FEE5F00208E98F
:10086000E9CDF9EAFEEBFFEF89F0A4FCE5F0CE89D3
:10087000F0A42EFFE435F0CD89F0A42DFEE435F090
:100880008067EF4E7005BD80D780C3EF8BF0A4ACBE
:10089000F0EE8BF0A42CFCE435F0F8EF8AF0A42CF9
:1008A000E5F038FCE433CB8DF0A42CFCE5F03BF80C
:1008B000EE8AF0A42CFCE5F038F8E433CF89F0A4FC
:1008C0002CFCE5F038CF3400CE89F0A42FFFE5F002
:1008D0003EFEE433C98DF0A42EFEE5F039CD8AF05A
:1008E000A42FFFE5F03EFEE43DFD33D0E0FB5007D2
:1008F0000BBB000F0209BAEC2CFCEF33FFEE33FE0A
:06090000ED33FD02099237
:1009060075F020800E75F010800575F0087D007E6C
:10091600007F003392D530D503120A33EC334010F2
:10092600EF33FFEE33FEED33FDEC33FCD5F0ED2275
:0E093600E5F0247EA2D513CC92E7CDCEFF22B1
:10094400EDD2E7CD33EC3392D524814006E4FFFEAB
:10095400FDFC22FCE4CFCECDCC24E0501174FF800A
:10096400EDC3CC13CCCD13CDCE13CECF13CF0470A7
:07097400F030D5DE020A336A
:10097B00E9D2E7C933E833F892D5EDD2E7CD33ECC2
:07098B0033FC5002B2D5223B
:10099200EC30E7100FBF000C0EBE00080DBD0004C6
:1009A2000BEB6014A2D5EB13FCED92E7FD2274FF72
:1009B200FCFDFEFF22E480F8A2D574FF13FC7D80CB
:0309C200E480EFDF
:03000000020CA14E
:0C0CA100787FE4F6D8FD758130020A412E
:1009C500BB010689828A83E0225002E722BBFE0230
:0909D500E32289828A83E4932263
:1009DE00BC000BBE0029EF8DF084FFADF022E4CCFD
:1009EE00F875F008EF2FFFEE33FEEC33FCEE9DECC6
:1009FE00984005FCEE9DFE0FD5F0E9E4CEFD22ED0C
:100A0E00F8F5F0EE8420D21CFEADF075F008EF2F55
:100A1E00FFED33FD4007985006D5F0F222C398FD46
:050A2E000FD5F0EA22E3
:0E0A3300C3E49FFFE49EFEE49DFDE49CFC22D4
:00000001FF
